{
  "_format": "hh-sol-artifact-1",
  "contractName": "Marketplace",
  "sourceName": "contracts/Marketplace.sol",
  "abi": [
    {
      "anonymous": false,
      "inputs": [
        {
          "indexed": true,
          "internalType": "uint256",
          "name": "listingId",
          "type": "uint256"
        },
        {
          "indexed": true,
          "internalType": "address",
          "name": "seller",
          "type": "address"
        },
        {
          "indexed": true,
          "internalType": "address",
          "name": "nft",
          "type": "address"
        },
        {
          "indexed": false,
          "internalType": "uint256",
          "name": "tokenId",
          "type": "uint256"
        },
        {
          "indexed": false,
          "internalType": "uint256",
          "name": "price",
          "type": "uint256"
        }
      ],
      "name": "ItemListed",
      "type": "event"
    },
    {
      "anonymous": false,
      "inputs": [
        {
          "indexed": true,
          "internalType": "uint256",
          "name": "listingId",
          "type": "uint256"
        },
        {
          "indexed": false,
          "internalType": "address",
          "name": "buyer",
          "type": "address"
        }
      ],
      "name": "ItemSold",
      "type": "event"
    },
    {
      "anonymous": false,
      "inputs": [
        {
          "indexed": true,
          "internalType": "uint256",
          "name": "listingId",
          "type": "uint256"
        }
      ],
      "name": "ListingCancelled",
      "type": "event"
    },
    {
      "inputs": [
        {
          "internalType": "uint256",
          "name": "",
          "type": "uint256"
        }
      ],
      "name": "allListings",
      "outputs": [
        {
          "internalType": "address",
          "name": "seller",
          "type": "address"
        },
        {
          "internalType": "uint256",
          "name": "price",
          "type": "uint256"
        },
        {
          "internalType": "address",
          "name": "nft",
          "type": "address"
        },
        {
          "internalType": "uint256",
          "name": "tokenId",
          "type": "uint256"
        }
      ],
      "stateMutability": "view",
      "type": "function"
    },
    {
      "inputs": [
        {
          "internalType": "uint256",
          "name": "index",
          "type": "uint256"
        }
      ],
      "name": "buyItem",
      "outputs": [],
      "stateMutability": "payable",
      "type": "function"
    },
    {
      "inputs": [
        {
          "internalType": "uint256",
          "name": "index",
          "type": "uint256"
        }
      ],
      "name": "cancelListing",
      "outputs": [],
      "stateMutability": "nonpayable",
      "type": "function"
    },
    {
      "inputs": [],
      "name": "getAllListings",
      "outputs": [
        {
          "components": [
            {
              "internalType": "address",
              "name": "seller",
              "type": "address"
            },
            {
              "internalType": "uint256",
              "name": "price",
              "type": "uint256"
            },
            {
              "internalType": "address",
              "name": "nft",
              "type": "address"
            },
            {
              "internalType": "uint256",
              "name": "tokenId",
              "type": "uint256"
            }
          ],
          "internalType": "struct Marketplace.Listing[]",
          "name": "",
          "type": "tuple[]"
        }
      ],
      "stateMutability": "view",
      "type": "function"
    },
    {
      "inputs": [],
      "name": "getSales",
      "outputs": [
        {
          "components": [
            {
              "internalType": "address",
              "name": "seller",
              "type": "address"
            },
            {
              "internalType": "address",
              "name": "buyer",
              "type": "address"
            },
            {
              "internalType": "address",
              "name": "nft",
              "type": "address"
            },
            {
              "internalType": "uint256",
              "name": "tokenId",
              "type": "uint256"
            },
            {
              "internalType": "uint256",
              "name": "price",
              "type": "uint256"
            },
            {
              "internalType": "uint256",
              "name": "timestamp",
              "type": "uint256"
            }
          ],
          "internalType": "struct Marketplace.Sale[]",
          "name": "",
          "type": "tuple[]"
        }
      ],
      "stateMutability": "view",
      "type": "function"
    },
    {
      "inputs": [
        {
          "internalType": "address",
          "name": "nft",
          "type": "address"
        },
        {
          "internalType": "uint256",
          "name": "tokenId",
          "type": "uint256"
        }
      ],
      "name": "isSold",
      "outputs": [
        {
          "internalType": "bool",
          "name": "",
          "type": "bool"
        }
      ],
      "stateMutability": "view",
      "type": "function"
    },
    {
      "inputs": [
        {
          "internalType": "address",
          "name": "nft",
          "type": "address"
        },
        {
          "internalType": "uint256",
          "name": "tokenId",
          "type": "uint256"
        },
        {
          "internalType": "uint256",
          "name": "price",
          "type": "uint256"
        }
      ],
      "name": "listItem",
      "outputs": [],
      "stateMutability": "nonpayable",
      "type": "function"
    },
    {
      "inputs": [
        {
          "internalType": "address",
          "name": "",
          "type": "address"
        },
        {
          "internalType": "uint256",
          "name": "",
          "type": "uint256"
        }
      ],
      "name": "listingIndex",
      "outputs": [
        {
          "internalType": "uint256",
          "name": "",
          "type": "uint256"
        }
      ],
      "stateMutability": "view",
      "type": "function"
    },
    {
      "inputs": [
        {
          "internalType": "uint256",
          "name": "",
          "type": "uint256"
        }
      ],
      "name": "sales",
      "outputs": [
        {
          "internalType": "address",
          "name": "seller",
          "type": "address"
        },
        {
          "internalType": "address",
          "name": "buyer",
          "type": "address"
        },
        {
          "internalType": "address",
          "name": "nft",
          "type": "address"
        },
        {
          "internalType": "uint256",
          "name": "tokenId",
          "type": "uint256"
        },
        {
          "internalType": "uint256",
          "name": "price",
          "type": "uint256"
        },
        {
          "internalType": "uint256",
          "name": "timestamp",
          "type": "uint256"
        }
      ],
      "stateMutability": "view",
      "type": "function"
    },
    {
      "inputs": [
        {
          "internalType": "uint256",
          "name": "index",
          "type": "uint256"
        },
        {
          "internalType": "uint256",
          "name": "newPrice",
          "type": "uint256"
        }
      ],
      "name": "updatePrice",
      "outputs": [],
      "stateMutability": "nonpayable",
      "type": "function"
    },
    {
      "inputs": [
        {
          "internalType": "address",
          "name": "",
          "type": "address"
        },
        {
          "internalType": "uint256",
          "name": "",
          "type": "uint256"
        }
      ],
      "name": "wasSold",
      "outputs": [
        {
          "internalType": "bool",
          "name": "",
          "type": "bool"
        }
      ],
      "stateMutability": "view",
      "type": "function"
    }
  ],
  "bytecode": "0x608060405234801561001057600080fd5b50612156806100206000396000f3fe60806040526004361061009c5760003560e01c806382367b2d1161006457806382367b2d146101af57806389bfd38f146101d8578063ae73ccec14610201578063b5f522f71461022c578063dd0cc2a41461026e578063e7fb74c7146102ab5761009c565b80630d83304c146100a15780630eeaa2ef146100cc578063305a67a81461010c5780634d3cf80514610135578063587437ec14610172575b600080fd5b3480156100ad57600080fd5b506100b66102c7565b6040516100c391906119b7565b60405180910390f35b3480156100d857600080fd5b506100f360048036038101906100ee9190611a0a565b610446565b6040516101039493929190611a55565b60405180910390f35b34801561011857600080fd5b50610133600480360381019061012e9190611a0a565b6104c6565b005b34801561014157600080fd5b5061015c60048036038101906101579190611ac6565b6109f0565b6040516101699190611b21565b60405180910390f35b34801561017e57600080fd5b5061019960048036038101906101949190611ac6565b610a1f565b6040516101a69190611b3c565b60405180910390f35b3480156101bb57600080fd5b506101d660048036038101906101d19190611b57565b610a44565b005b3480156101e457600080fd5b506101ff60048036038101906101fa9190611b97565b610b94565b005b34801561020d57600080fd5b50610216610e3b565b6040516102239190611cee565b60405180910390f35b34801561023857600080fd5b50610253600480360381019061024e9190611a0a565b610f5a565b60405161026596959493929190611d10565b60405180910390f35b34801561027a57600080fd5b5061029560048036038101906102909190611ac6565b611006565b6040516102a29190611b21565b60405180910390f35b6102c560048036038101906102c09190611a0a565b61106e565b005b60606000805480602002602001604051908101604052809291908181526020016000905b8282101561043d57838290600052602060002090600602016040518060c00160405290816000820160009054906101000a900473ffffffffffffffffffffffffffffffffffffffff1673ffffffffffffffffffffffffffffffffffffffff1673ffffffffffffffffffffffffffffffffffffffff1681526020016001820160009054906101000a900473ffffffffffffffffffffffffffffffffffffffff1673ffffffffffffffffffffffffffffffffffffffff1673ffffffffffffffffffffffffffffffffffffffff1681526020016002820160009054906101000a900473ffffffffffffffffffffffffffffffffffffffff1673ffffffffffffffffffffffffffffffffffffffff1673ffffffffffffffffffffffffffffffffffffffff1681526020016003820154815260200160048201548152602001600582015481525050815260200190600101906102eb565b50505050905090565b6002818154811061045657600080fd5b90600052602060002090600402016000915090508060000160009054906101000a900473ffffffffffffffffffffffffffffffffffffffff16908060010154908060020160009054906101000a900473ffffffffffffffffffffffffffffffffffffffff16908060030154905084565b6000600282815481106104dc576104db611d71565b5b90600052602060002090600402016040518060800160405290816000820160009054906101000a900473ffffffffffffffffffffffffffffffffffffffff1673ffffffffffffffffffffffffffffffffffffffff1673ffffffffffffffffffffffffffffffffffffffff168152602001600182015481526020016002820160009054906101000a900473ffffffffffffffffffffffffffffffffffffffff1673ffffffffffffffffffffffffffffffffffffffff1673ffffffffffffffffffffffffffffffffffffffff16815260200160038201548152505090503373ffffffffffffffffffffffffffffffffffffffff16816000015173ffffffffffffffffffffffffffffffffffffffff1614610629576040517f08c379a000000000000000000000000000000000000000000000000000000000815260040161062090611dfd565b60405180910390fd5b806040015173ffffffffffffffffffffffffffffffffffffffff166323b872dd30836000015184606001516040518463ffffffff1660e01b815260040161067293929190611e1d565b600060405180830381600087803b15801561068c57600080fd5b505af11580156106a0573d6000803e3d6000fd5b50505050600060016002805490506106b89190611e83565b90508083146108d9576000600282815481106106d7576106d6611d71565b5b90600052602060002090600402016040518060800160405290816000820160009054906101000a900473ffffffffffffffffffffffffffffffffffffffff1673ffffffffffffffffffffffffffffffffffffffff1673ffffffffffffffffffffffffffffffffffffffff168152602001600182015481526020016002820160009054906101000a900473ffffffffffffffffffffffffffffffffffffffff1673ffffffffffffffffffffffffffffffffffffffff1673ffffffffffffffffffffffffffffffffffffffff168152602001600382015481525050905080600285815481106107c7576107c6611d71565b5b906000526020600020906004020160008201518160000160006101000a81548173ffffffffffffffffffffffffffffffffffffffff021916908373ffffffffffffffffffffffffffffffffffffffff1602179055506020820151816001015560408201518160020160006101000a81548173ffffffffffffffffffffffffffffffffffffffff021916908373ffffffffffffffffffffffffffffffffffffffff160217905550606082015181600301559050508360036000836040015173ffffffffffffffffffffffffffffffffffffffff1673ffffffffffffffffffffffffffffffffffffffff16815260200190815260200160002060008360600151815260200190815260200160002081905550505b60028054806108eb576108ea611eb7565b5b6001900381819060005260206000209060040201600080820160006101000a81549073ffffffffffffffffffffffffffffffffffffffff021916905560018201600090556002820160006101000a81549073ffffffffffffffffffffffffffffffffffffffff021916905560038201600090555050905560036000836040015173ffffffffffffffffffffffffffffffffffffffff1673ffffffffffffffffffffffffffffffffffffffff16815260200190815260200160002060008360600151815260200190815260200160002060009055827f411aee90354c51b1b04cd563fcab2617142a9d50da19232d888547c8a1b7fd8a60405160405180910390a2505050565b60016020528160005260406000206020528060005260406000206000915091509054906101000a900460ff1681565b6003602052816000526040600020602052806000526040600020600091509150505481565b60008111610a87576040517f08c379a0000000000000000000000000000000000000000000000000000000008152600401610a7e90611f32565b60405180910390fd5b6002805490508210610ace576040517f08c379a0000000000000000000000000000000000000000000000000000000008152600401610ac590611f9e565b60405180910390fd5b600060028381548110610ae457610ae3611d71565b5b906000526020600020906004020190503373ffffffffffffffffffffffffffffffffffffffff168160000160009054906101000a900473ffffffffffffffffffffffffffffffffffffffff1673ffffffffffffffffffffffffffffffffffffffff1614610b86576040517f08c379a0000000000000000000000000000000000000000000000000000000008152600401610b7d90611dfd565b60405180910390fd5b818160010181905550505050565b60008111610bd7576040517f08c379a0000000000000000000000000000000000000000000000000000000008152600401610bce90611f32565b60405180910390fd5b8273ffffffffffffffffffffffffffffffffffffffff166323b872dd3330856040518463ffffffff1660e01b8152600401610c1493929190611e1d565b600060405180830381600087803b158015610c2e57600080fd5b505af1158015610c42573d6000803e3d6000fd5b50505050600260405180608001604052803373ffffffffffffffffffffffffffffffffffffffff1681526020018381526020018573ffffffffffffffffffffffffffffffffffffffff16815260200184815250908060018154018082558091505060019003906000526020600020906004020160009091909190915060008201518160000160006101000a81548173ffffffffffffffffffffffffffffffffffffffff021916908373ffffffffffffffffffffffffffffffffffffffff1602179055506020820151816001015560408201518160020160006101000a81548173ffffffffffffffffffffffffffffffffffffffff021916908373ffffffffffffffffffffffffffffffffffffffff16021790555060608201518160030155505060006001600280549050610d769190611e83565b905080600360008673ffffffffffffffffffffffffffffffffffffffff1673ffffffffffffffffffffffffffffffffffffffff1681526020019081526020016000206000858152602001908152602001600020819055508373ffffffffffffffffffffffffffffffffffffffff163373ffffffffffffffffffffffffffffffffffffffff16827f424b3284a7958bb7965c27ca0b2a8b30ce2a56ba954533df15e6bded1b608ed78686604051610e2d929190611fbe565b60405180910390a450505050565b60606002805480602002602001604051908101604052809291908181526020016000905b82821015610f5157838290600052602060002090600402016040518060800160405290816000820160009054906101000a900473ffffffffffffffffffffffffffffffffffffffff1673ffffffffffffffffffffffffffffffffffffffff1673ffffffffffffffffffffffffffffffffffffffff168152602001600182015481526020016002820160009054906101000a900473ffffffffffffffffffffffffffffffffffffffff1673ffffffffffffffffffffffffffffffffffffffff1673ffffffffffffffffffffffffffffffffffffffff16815260200160038201548152505081526020019060010190610e5f565b50505050905090565b60008181548110610f6a57600080fd5b90600052602060002090600602016000915090508060000160009054906101000a900473ffffffffffffffffffffffffffffffffffffffff16908060010160009054906101000a900473ffffffffffffffffffffffffffffffffffffffff16908060020160009054906101000a900473ffffffffffffffffffffffffffffffffffffffff16908060030154908060040154908060050154905086565b6000600160008473ffffffffffffffffffffffffffffffffffffffff1673ffffffffffffffffffffffffffffffffffffffff168152602001908152602001600020600083815260200190815260200160002060009054906101000a900460ff16905092915050565b60006002828154811061108457611083611d71565b5b90600052602060002090600402016040518060800160405290816000820160009054906101000a900473ffffffffffffffffffffffffffffffffffffffff1673ffffffffffffffffffffffffffffffffffffffff1673ffffffffffffffffffffffffffffffffffffffff168152602001600182015481526020016002820160009054906101000a900473ffffffffffffffffffffffffffffffffffffffff1673ffffffffffffffffffffffffffffffffffffffff1673ffffffffffffffffffffffffffffffffffffffff1681526020016003820154815250509050806020015134146111a5576040517f08c379a000000000000000000000000000000000000000000000000000000000815260040161119c90612033565b60405180910390fd5b6000816000015173ffffffffffffffffffffffffffffffffffffffff16346040516111cf90612084565b60006040518083038185875af1925050503d806000811461120c576040519150601f19603f3d011682016040523d82523d6000602084013e611211565b606091505b5050905080611255576040517f08c379a000000000000000000000000000000000000000000000000000000000815260040161124c906120e5565b60405180910390fd5b816040015173ffffffffffffffffffffffffffffffffffffffff166323b872dd303385606001516040518463ffffffff1660e01b815260040161129a93929190611e1d565b600060405180830381600087803b1580156112b457600080fd5b505af11580156112c8573d6000803e3d6000fd5b5050505060006040518060c00160405280846000015173ffffffffffffffffffffffffffffffffffffffff1681526020013373ffffffffffffffffffffffffffffffffffffffff168152602001846040015173ffffffffffffffffffffffffffffffffffffffff168152602001846060015181526020018460200151815260200142815250908060018154018082558091505060019003906000526020600020906006020160009091909190915060008201518160000160006101000a81548173ffffffffffffffffffffffffffffffffffffffff021916908373ffffffffffffffffffffffffffffffffffffffff16021790555060208201518160010160006101000a81548173ffffffffffffffffffffffffffffffffffffffff021916908373ffffffffffffffffffffffffffffffffffffffff16021790555060408201518160020160006101000a81548173ffffffffffffffffffffffffffffffffffffffff021916908373ffffffffffffffffffffffffffffffffffffffff160217905550606082015181600301556080820151816004015560a0820151816005015550506001806000846040015173ffffffffffffffffffffffffffffffffffffffff1673ffffffffffffffffffffffffffffffffffffffff16815260200190815260200160002060008460600151815260200190815260200160002060006101000a81548160ff021916908315150217905550600060016002805490506114ef9190611e83565b90508084146117105760006002828154811061150e5761150d611d71565b5b90600052602060002090600402016040518060800160405290816000820160009054906101000a900473ffffffffffffffffffffffffffffffffffffffff1673ffffffffffffffffffffffffffffffffffffffff1673ffffffffffffffffffffffffffffffffffffffff168152602001600182015481526020016002820160009054906101000a900473ffffffffffffffffffffffffffffffffffffffff1673ffffffffffffffffffffffffffffffffffffffff1673ffffffffffffffffffffffffffffffffffffffff168152602001600382015481525050905080600286815481106115fe576115fd611d71565b5b906000526020600020906004020160008201518160000160006101000a81548173ffffffffffffffffffffffffffffffffffffffff021916908373ffffffffffffffffffffffffffffffffffffffff1602179055506020820151816001015560408201518160020160006101000a81548173ffffffffffffffffffffffffffffffffffffffff021916908373ffffffffffffffffffffffffffffffffffffffff160217905550606082015181600301559050508460036000836040015173ffffffffffffffffffffffffffffffffffffffff1673ffffffffffffffffffffffffffffffffffffffff16815260200190815260200160002060008360600151815260200190815260200160002081905550505b600280548061172257611721611eb7565b5b6001900381819060005260206000209060040201600080820160006101000a81549073ffffffffffffffffffffffffffffffffffffffff021916905560018201600090556002820160006101000a81549073ffffffffffffffffffffffffffffffffffffffff021916905560038201600090555050905560036000846040015173ffffffffffffffffffffffffffffffffffffffff1673ffffffffffffffffffffffffffffffffffffffff16815260200190815260200160002060008460600151815260200190815260200160002060009055837f7de4035ced290be6d7724645d43bad448b5d8cc76743ff4da172c2d8e1caa0f5336040516118259190612105565b60405180910390a250505050565b600081519050919050565b600082825260208201905092915050565b6000819050602082019050919050565b600073ffffffffffffffffffffffffffffffffffffffff82169050919050565b600061188a8261185f565b9050919050565b61189a8161187f565b82525050565b6000819050919050565b6118b3816118a0565b82525050565b60c0820160008201516118cf6000850182611891565b5060208201516118e26020850182611891565b5060408201516118f56040850182611891565b50606082015161190860608501826118aa565b50608082015161191b60808501826118aa565b5060a082015161192e60a08501826118aa565b50505050565b600061194083836118b9565b60c08301905092915050565b6000602082019050919050565b600061196482611833565b61196e818561183e565b93506119798361184f565b8060005b838110156119aa5781516119918882611934565b975061199c8361194c565b92505060018101905061197d565b5085935050505092915050565b600060208201905081810360008301526119d18184611959565b905092915050565b600080fd5b6119e7816118a0565b81146119f257600080fd5b50565b600081359050611a04816119de565b92915050565b600060208284031215611a2057611a1f6119d9565b5b6000611a2e848285016119f5565b91505092915050565b611a408161187f565b82525050565b611a4f816118a0565b82525050565b6000608082019050611a6a6000830187611a37565b611a776020830186611a46565b611a846040830185611a37565b611a916060830184611a46565b95945050505050565b611aa38161187f565b8114611aae57600080fd5b50565b600081359050611ac081611a9a565b92915050565b60008060408385031215611add57611adc6119d9565b5b6000611aeb85828601611ab1565b9250506020611afc858286016119f5565b9150509250929050565b60008115159050919050565b611b1b81611b06565b82525050565b6000602082019050611b366000830184611b12565b92915050565b6000602082019050611b516000830184611a46565b92915050565b60008060408385031215611b6e57611b6d6119d9565b5b6000611b7c858286016119f5565b9250506020611b8d858286016119f5565b9150509250929050565b600080600060608486031215611bb057611baf6119d9565b5b6000611bbe86828701611ab1565b9350506020611bcf868287016119f5565b9250506040611be0868287016119f5565b9150509250925092565b600081519050919050565b600082825260208201905092915050565b6000819050602082019050919050565b608082016000820151611c2c6000850182611891565b506020820151611c3f60208501826118aa565b506040820151611c526040850182611891565b506060820151611c6560608501826118aa565b50505050565b6000611c778383611c16565b60808301905092915050565b6000602082019050919050565b6000611c9b82611bea565b611ca58185611bf5565b9350611cb083611c06565b8060005b83811015611ce1578151611cc88882611c6b565b9750611cd383611c83565b925050600181019050611cb4565b5085935050505092915050565b60006020820190508181036000830152611d088184611c90565b905092915050565b600060c082019050611d256000830189611a37565b611d326020830188611a37565b611d3f6040830187611a37565b611d4c6060830186611a46565b611d596080830185611a46565b611d6660a0830184611a46565b979650505050505050565b7f4e487b7100000000000000000000000000000000000000000000000000000000600052603260045260246000fd5b600082825260208201905092915050565b7f4e6f742073656c6c657200000000000000000000000000000000000000000000600082015250565b6000611de7600a83611da0565b9150611df282611db1565b602082019050919050565b60006020820190508181036000830152611e1681611dda565b9050919050565b6000606082019050611e326000830186611a37565b611e3f6020830185611a37565b611e4c6040830184611a46565b949350505050565b7f4e487b7100000000000000000000000000000000000000000000000000000000600052601160045260246000fd5b6000611e8e826118a0565b9150611e99836118a0565b9250828203905081811115611eb157611eb0611e54565b5b92915050565b7f4e487b7100000000000000000000000000000000000000000000000000000000600052603160045260246000fd5b7f5072696365206d757374206265203e2030000000000000000000000000000000600082015250565b6000611f1c601183611da0565b9150611f2782611ee6565b602082019050919050565b60006020820190508181036000830152611f4b81611f0f565b9050919050565b7f496e76616c696420696e64657800000000000000000000000000000000000000600082015250565b6000611f88600d83611da0565b9150611f9382611f52565b602082019050919050565b60006020820190508181036000830152611fb781611f7b565b9050919050565b6000604082019050611fd36000830185611a46565b611fe06020830184611a46565b9392505050565b7f57726f6e67204554480000000000000000000000000000000000000000000000600082015250565b600061201d600983611da0565b915061202882611fe7565b602082019050919050565b6000602082019050818103600083015261204c81612010565b9050919050565b600081905092915050565b50565b600061206e600083612053565b91506120798261205e565b600082019050919050565b600061208f82612061565b9150819050919050565b7f455448207472616e73666572206661696c656400000000000000000000000000600082015250565b60006120cf601383611da0565b91506120da82612099565b602082019050919050565b600060208201905081810360008301526120fe816120c2565b9050919050565b600060208201905061211a6000830184611a37565b9291505056fea2646970667358221220f467e0be68daee262a0767b3ee63a0bfc23c3022449915fae84cccc57732c48d64736f6c63430008140033",
  "linkReferences": {},
  "deployedLinkReferences": {}
}